S00D0000726F626F742E73726563F1
S11300000C9459000C94E41D0C94151E0C94760069
S11300100C9476000C9476000C9476000C949E1A42
S11300200C9476000C9476000C9476000C94760074
S11300300C9476000C94E8190C94221A0C94760013
S11300400C94461E0C9476000C9476000C94760066
S11300500C947600AA13C613E513011422143E145B
S1130060B614D214F3143515511570158C15AD153D
S1130070C915EA1506162716431664168016A11626
S1130080BD16DE16FA161B173717431F4A1F531FD8
S11300905C1F651F6C1F731F7A1F831F8C1F951FA6
S11300A09E1FA71FB01FB91FC21FCB1FD41FDD1F68
S11300B0E61F11241FBECFE5D8E0DEBFCDBF11E09F
S11300C0A0E6B0E0E4E5F9E402C005900D92A630A4
S11300D0B107D9F723E0A6E0B1E001C01D92A03E2C
S11300E0B207E1F70E94F3170C94A8240C940000C3
S11300F0CF93DF93CDB7DEB78AE390E02AE330E015
S1130100F90120812F7BFC0120838AE390E02AE31C
S113011030E0F90120812F77FC01208387E290E011
S113012027E230E0F90120812064FC01208387E28A
S113013090E027E230E0F90120812068FC0120836F
S113014086E290E026E230E0F90120812068FC019B
S1130150208386E290E026E230E0F90120812860E5
S1130160FC01208386E290E026E230E0F901208160
S11301702460FC01208386E290E026E230E0F9016D
S113018020812260FC01208386E290E026E230E0B8
S1130190F90120812160FC01208310924B01DF9141
S11301A0CF910895CF93DF93CDB7DEB781E08093ED
S11301B04B0187E290E027E230E0F9012081287FBB
S11301C0FC01208387E290E027E230E0F9012081FE
S11301D02660FC01208381E080934D0186E290E05B
S11301E026E230E0F90120812064FC012083DF91C4
S11301F0CF910895CF93DF93CDB7DEB780914701B8
S1130200882351F090914B0181E08927882319F0CC
S11302100E94D20001C00000DF91CF910895CF93D6
S1130220DF93CDB7DEB729970FB6F894DEBF0FBEC4
S1130230CDBF80915B01882321F110925B018CE397
S113024089831A821B821C821D82809150019091A5
S113025051018E838091500190915101892F9927EA
S11302608F8380914E0190914F01888780914E0138
S113027090914F01892F99278987CE0101960E9479
S1130280962029960FB6F894DEBF0FBECDBFDF913E
S1130290CF910895CF93DF93CDB7DEB72B970FB6E9
S11302A0F894DEBF0FBECDBF9B878A878A859B8566
S11302B0FC0185819681A781B0850097A105B105D0
S11302C001F529E0CE010196FC01322F11923A95F5
S11302D0E9F782E089830E948720DC01CB018E83C9
S11302E09F83A887B9878091BE0181608093BE01F6
S11302F000000E9403210097E1F7CE0101960E94BD
S113030096202B960FB6F894DEBF0FBECDBFDF91BB
S1130310CF910895CF93DF9300D0CDB7DEB79A8302
S1130320898389819A81FC0185819681A781B08521
S11303300097A105B10529F48091BE018E7F8093B9
S1130340BE010F900F90DF91CF910895CF93DF936B
S1130350CDB7DEB729970FB6F894DEBF0FBECDBF79
S113036089E390E0FC018081882F90E08F739927C6
S1130370880F991F282F86E390E0FC01808181700B
S1130380822B8093870129E0CE010196FC01322F54
S113039011923A95E9F783E0898380918701882F48
S11303A090E0A0E0B0E08E839F83A887B987CE0158
S11303B001960E94962029960FB6F894DEBF0FBED0
S11303C0CDBFDF91CF910895CF93DF93CDB7DEB743
S11303D08091BE018170882309F442C086E091E0D7
S11303E00E94D521882399F048EE53E060E070E044
S11303F086E091E00E9495210E94A60188E390E0A6
S113040028E330E0F90120812460FC0120838091FD
S1130410BE018270882321F50E940321909310016C
S113042080930F0180910F01909110010097C1F00A
S113043080910F0190911001FC018081882351F477
S113044080910F0190911001FC01858196810E9499
S11304500F2306C080910F01909110010E94B422D5
S11304608091BE0184708823A1F08091BE018B7FAE
S11304708093BE018091CA03882F90E0880F991F52
S11304808E539E4FFC01208131818AEC93E0F90167
S11304900995DF91CF910895CF93DF93CDB7DEB760
S11304A0DF91CF910895CF93DF93CDB7DEB72A972D
S11304B00FB6F894DEBF0FBECDBF9091810181E0ED
S11304C08927882309F45CC08091BE018F7E8093C4
S11304D0BE0181E08093810184E58A831B821C82B2
S11304E01D821E821F82188619861A86CE010296E4
S11304F00E94962082E390E022E330E0F90120811B
S11305002061FC01208385E390E025E330E0F901DC
S113051020812E7FFC01208381E08093940181E07F
S11305208093930182E390E022E330E0F90120819B
S11305302062FC01208382E390E022E330E0F901B1
S113054020812F7BFC01208381E08093A50181E041
S11305508093A40184E690E09093960180939501A2
S113056084E690E09093A7018093A6011092820103
S113057040ED57E060E070E08AE691E00E9495214A
S113058080918201882331F48AE691E00E94D5218A
S1130590882379F181E08093820189E390E0FC0172
S11305A08081882F90E08F739927880F991F282FB7
S11305B086E390E0FC0180818170822B8093870127
S11305C08091870189838981882F90E08F7399278F
S11305D08F33910569F0109282011092850181E0B8
S11305E08093110182E093E090935F0180935E0118
S11305F000002A960FB6F894DEBF0FBECDBFDF9180
S1130600CF910895CF93DF93CDB7DEB729970FB677
S1130610F894DEBF0FBECDBF9091850181E089279C
S1130620882309F450C081E08093850129E0E6E73E
S1130630F0E0CE010196DC0101900D922A95E1F7DC
S1130640CE0101960E94962082E390E022E330E0FE
S1130650F90120812061FC01208385E390E025E3FA
S113066030E0F90120812E7FFC01208381E080931A
S1130670940181E08093930182E390E022E330E0EF
S1130680F90120812062FC01208382E390E022E3CF
S113069030E0F90120812F7BFC01208381E08093ED
S11306A0A50181E08093A401109296011092950116
S11306B01092A7011092A60142E060EE71E082E37D
S11306C090E00E94E21080918B0190918C01009740
S11306D089F480919C0190919D01009759F41092A6
S11306E0830181E08093110183E893E090935F019B
S11306F080935E0129960FB6F894DEBF0FBECDBF7E
S1130700DF91CF910895CF93DF93CDB7DEB72997CB
S11307100FB6F894DEBF0FBECDBF9091850181E086
S11307208927882309F44DC081E08093850129E05D
S1130730EFE7F0E0CE010196DC0101900D922A95DD
S1130740E1F7CE0101960E94962082E390E022E335
S113075030E0F90120812061FC01208385E390E0F1
S113076025E330E0F90120812E7FFC01208381E024
S11307708093940181E08093930182E390E022E3EB
S113078030E0F90120812062FC01208382E390E0C3
S113079022E330E0F90120812F7BFC01208381E0FA
S11307A08093A50181E08093A40184E190E090937B
S11307B096018093950184E190E09093A701809342
S11307C0A60129960FB6F894DEBF0FBECDBFDF9108
S11307D0CF910895CF93DF93CDB7DEB729970FB6A6
S11307E0F894DEBF0FBECDBF29E0E6E7F0E0CE010E
S11307F00196DC0101900D922A95E1F7CE01019654
S11308000E94962085E390E025E330E0F901208101
S11308102160FC01208382E390E022E330E0F901CF
S113082020812F7EFC0120838FEF809394018FEF32
S11308308093930182E390E022E330E0F901208188
S11308402064FC01208382E390E022E330E0F9019C
S113085020812F7DFC0120838FEF8093A5018FEFF2
S11308608093A40110929601109295011092A70111
S11308701092A60129960FB6F894DEBF0FBECDBF25
S1130880DF91CF910895CF93DF93CDB7DEB7DF919A
S1130890CF910895CF93DF93CDB7DEB7DF91CF919A
S11308A00895CF93DF93CDB7DEB729970FB6F894A9
S11308B0DEBF0FBECDBF9091730181E089278823ED
S11308C009F453C081E08093730129E0E8E8F0E083
S11308D0CE010196DC0101900D922A95E1F7CE013B
S11308E001960E94962085E390E025E330E0F9012B
S11308F020812160FC01208382E390E022E330E048
S1130900F90120812F7EFC0120838FEF80939401D5
S11309108FEF8093930182E390E022E330E0F901CA
S113092020812064FC01208382E390E022E330E014
S1130930F90120812F7DFC0120838FEF8093A50195
S11309408FEF8093A401109296011092950110925A
S1130950A7011092A60148EB5BE060E070E08AE634
S113096091E00E949521000012C08AE691E00E9465
S1130970D521882361F081E08093110180ED94E01A
S113098090935F0180935E01109279010000299693
S11309900FB6F894DEBF0FBECDBFDF91CF9108959F
S11309A0CF93DF93CDB7DEB729970FB6F894DEBFA8
S11309B00FBECDBF9091790181E08927882309F486
S11309C052C081E08093790181E08093470129E05E
S11309D0E1E9F0E0CE010196DC0101900D922A9547
S11309E0E1F7CE0101960E94962082E390E022E393
S11309F030E0F90120812061FC01208385E390E04F
S1130A0025E330E0F90120812E7FFC01208381E081
S1130A108093940181E08093930182E390E022E348
S1130A2030E0F90120812062FC01208382E390E020
S1130A3022E330E0F90120812F7BFC01208381E057
S1130A408093A50181E08093A40184E690E09093D3
S1130A5096018093950184E690E09093A70180939A
S1130A60A60100005DC080914C01882309F458C0A0
S1130A7010924C0180915001909151018039F1E024
S1130A809F0708F44DC08091500190915101893E17
S1130A9023E0920708F044C085E390E025E330E0CA
S1130AA0F90120812160FC01208382E390E022E3AC
S1130AB030E0F90120812F7EFC0120838FEF8093A9
S1130AC094018FEF8093930182E390E022E330E07E
S1130AD0F90120812064FC01208382E390E022E379
S1130AE030E0F90120812F7DFC0120838FEF80937A
S1130AF0A5018FEF8093A4011092960110929501A5
S1130B001092A7011092A60181E08093110189E956
S1130B1095E090935F0180935E0110925C01000068
S1130B2029960FB6F894DEBF0FBECDBFDF91CF91EB
S1130B300895CF93DF93CDB7DEB729970FB6F89416
S1130B40DEBF0FBECDBF90915C0181E08927882371
S1130B5009F455C081E080935C0129E0EAE9F0E002
S1130B60CE010196DC0101900D922A95E1F7CE01A8
S1130B7001960E94962048EE53E060E070E08AE619
S1130B8091E00E94952182E390E022E330E0F901B4
S1130B9020812061FC01208385E390E025E330E09F
S1130BA0F90120812E7FFC01208381E08093940150
S1130BB081E08093930182E390E022E330E0F90145
S1130BC020812062FC01208382E390E022E330E074
S1130BD0F90120812F7BFC01208381E08093A50112
S1130BE081E08093A40184E690E090939601809341
S1130BF095011092A7011092A60100004BC08AE64D
S1130C0091E00E94D521882309F444C085E390E053
S1130C1025E330E0F90120812160FC01208382E397
S1130C2090E022E330E0F90120812F7EFC01208353
S1130C308FEF809394018FEF8093930182E390E090
S1130C4022E330E0F90120812064FC01208382E367
S1130C5090E022E330E0F90120812F7DFC01208324
S1130C608FEF8093A5018FEF8093A4011092A701C9
S1130C701092A601109296011092950181E0809342
S1130C80110183E596E090935F0180935E011092D9
S1130C906201000029960FB6F894DEBF0FBECDBFE7
S1130CA0DF91CF910895CF93DF93CDB7DEB7299726
S1130CB00FB6F894DEBF0FBECDBF9091620181E004
S1130CC08927882309F452C081E08093470181E099
S1130CD08093620129E0E3EAF0E0CE010196DC01B1
S1130CE001900D922A95E1F7CE0101960E9496207B
S1130CF082E390E022E330E0F90120812061FC01ED
S1130D00208385E390E025E330E0F90120812E7F04
S1130D10FC01208381E08093940181E0809393011E
S1130D2082E390E022E330E0F90120812062FC01BB
S1130D30208382E390E022E330E0F90120812F7BDD
S1130D40FC01208381E08093A50181E08093A401CC
S1130D5084E690E09093A7018093A60184E690E056
S1130D609093960180939501000054C080914C01AA
S1130D70882309F44FC010924C0180914E01909148
S1130D804F018F38F1E09F0708F044C085E390E0FD
S1130D9025E330E0F90120812160FC01208382E316
S1130DA090E022E330E0F90120812F7EFC012083D2
S1130DB08FEF809394018FEF8093930182E390E00F
S1130DC022E330E0F90120812064FC01208382E3E6
S1130DD090E022E330E0F90120812F7DFC012083A3
S1130DE08FEF8093A5018FEF8093A4011092960159
S1130DF0109295011092A7011092A60181E08093B0
S1130E00110183E197E090935F0180935E0110925A
S1130E107F01000029960FB6F894DEBF0FBECDBF48
S1130E20DF91CF910895CF93DF93CDB7DEB72997A4
S1130E300FB6F894DEBF0FBECDBF90917F0181E065
S1130E408927882309F457C081E080937F0129E032
S1130E50ECEAF0E0CE010196DC0101900D922A95B6
S1130E60E1F7CE0101960E94962044EF51E060E044
S1130E7070E08AE691E00E94952182E390E022E30B
S1130E8030E0F90120812061FC01208385E390E0BA
S1130E9025E330E0F90120812E7FFC01208381E0ED
S1130EA08093940181E08093930182E390E022E3B4
S1130EB030E0F90120812062FC01208382E390E08C
S1130EC022E330E0F90120812F7BFC01208381E0C3
S1130ED08093A50181E08093A40184E690E090933F
S1130EE0A7018093A60184E690E0909396018093F5
S1130EF0950100004BC08AE691E00E94D521882329
S1130F0009F444C085E390E025E330E0F901208151
S1130F102160FC01208382E390E022E330E0F901C8
S1130F2020812F7EFC0120838FEF809394018FEF2B
S1130F308093930182E390E022E330E0F901208181
S1130F402064FC01208382E390E022E330E0F90195
S1130F5020812F7DFC0120838FEF8093A5018FEFEB
S1130F608093A4011092A7011092A60110929601F9
S1130F701092950181E0809311018FEC97E090939A
S1130F805F0180935E0110927D01000029960FB6E7
S1130F90F894DEBF0FBECDBFDF91CF910895CF93FC
S1130FA0DF93CDB7DEB729970FB6F894DEBF0FBE37
S1130FB0CDBF90917D0181E08927882309F455C034
S1130FC081E080937D0129E0E5EBF0E0CE0101961C
S1130FD0DC0101900D922A95E1F7CE0101960E9461
S1130FE0962048EE53E060E070E08AE691E00E94CB
S1130FF0952182E390E022E330E0F9012081206131
S1131000FC01208385E390E025E330E0F9012081B1
S11310102E7FFC01208381E08093940181E0809302
S1131020930182E390E022E330E0F9012081206221
S1131030FC01208382E390E022E330E0F901208187
S11310402F7BFC01208381E08093A50181E08093C4
S1131050A40184E690E09093A7018093A6011092E6
S113106096011092950100004BC08AE691E00E941F
S1131070D521882309F444C085E390E025E330E0DA
S1131080F90120812160FC01208382E390E022E3C6
S113109030E0F90120812F7EFC0120838FEF8093C3
S11310A094018FEF8093930182E390E022E330E098
S11310B0F90120812064FC01208382E390E022E393
S11310C030E0F90120812F7DFC0120838FEF809394
S11310D0A5018FEF8093A4011092A7011092A6019D
S11310E0109296011092950181E08093110189E894
S11310F098E090935F0180935E0110927B01000061
S113110029960FB6F894DEBF0FBECDBFDF91CF9105
S11311100895CF93DF93CDB7DEB729970FB6F89430
S1131120DEBF0FBECDBF90917B0181E0892788236C
S113113009F457C081E080937B0129E0EEEBF0E0F5
S1131140CE010196DC0101900D922A95E1F748EE5B
S113115053E060E070E08AE691E00E949521CE01C0
S113116001960E94962082E390E022E330E0F901A8
S113117020812061FC01208385E390E025E330E0B9
S1131180F90120812E7FFC01208381E0809394016A
S113119081E08093930182E390E022E330E0F9015F
S11311A020812062FC01208382E390E022E330E08E
S11311B0F90120812F7BFC01208381E08093A5012C
S11311C081E08093A40184E690E09093A70180934A
S11311D0A60184E690E09093960180939501000027
S11311E04BC08AE691E00E94D521882309F444C0CB
S11311F085E390E025E330E0F90120812160FC01E2
S1131200208382E390E022E330E0F90120812F7E05
S1131210FC0120838FEF809394018FEF80939301DF
S113122082E390E022E330E0F90120812064FC01B4
S1131230208382E390E022E330E0F90120812F7DD6
S1131240FC0120838FEF8093A5018FEF8093A4018D
S11312501092A7011092A601109296011092950186
S113126081E08093110185E499E090935F0180937C
S11312705E0110926801000029960FB6F894DEBF53
S11312800FBECDBFDF91CF910895CF93DF93CDB73C
S1131290DEB729970FB6F894DEBF0FBECDBF90918D
S11312A0680181E08927882309F457C081E080938D
S11312B0680129E0E7ECF0E0CE010196DC01019041
S11312C00D922A95E1F7CE0101960E94962044EFF3
S11312D051E060E070E08AE691E00E94952182E3AB
S11312E090E022E330E0F90120812061FC012083B9
S11312F085E390E025E330E0F90120812E7FFC01B5
S1131300208381E08093940181E08093930182E3C0
S113131090E022E330E0F90120812062FC01208387
S113132082E390E022E330E0F90120812F7BFC018D
S1131330208381E08093A50181E08093A40184E669
S113134090E09093A7018093A60184E690E09093A7
S113135096018093950100004BC08AE691E00E94BB
S1131360D521882309F444C085E390E025E330E0E7
S1131370F90120812160FC01208382E390E022E3D3
S113138030E0F90120812F7EFC0120838FEF8093D0
S113139094018FEF8093930182E390E022E330E0A5
S11313A0F90120812064FC01208382E390E022E3A0
S11313B030E0F90120812F7DFC0120838FEF8093A1
S11313C0A5018FEF8093A4011092A7011092A601AA
S11313D0109296011092950181E08093110181E0B1
S11313E09AE090935F0180935E0110926001000087
S11313F029960FB6F894DEBF0FBECDBFDF91CF9113
S11314000895CF93DF93CDB7DEB729970FB6F8943D
S1131410DEBF0FBECDBF9091600181E08927882394
S113142009F455C081E08093600129E0E0EDF0E02B
S1131430CE010196DC0101900D922A95E1F7CE01CF
S113144001960E94962048EE53E060E070E08AE640
S113145091E00E94952182E390E022E330E0F901DB
S113146020812061FC01208385E390E025E330E0C6
S1131470F90120812E7FFC01208381E08093940177
S113148081E08093930182E390E022E330E0F9016C
S113149020812062FC01208382E390E022E330E09B
S11314A0F90120812F7BFC01208381E08093A50139
S11314B081E08093A40184E690E09093A701809357
S11314C0A601109296011092950100004BC08AE685
S11314D091E00E94D521882309F444C085E390E07B
S11314E025E330E0F90120812160FC01208382E3BF
S11314F090E022E330E0F90120812F7EFC0120837B
S11315008FEF809394018FEF8093930182E390E0B7
S113151022E330E0F90120812064FC01208382E38E
S113152090E022E330E0F90120812F7DFC0120834B
S11315308FEF8093A5018FEF8093A4011092A701F0
S11315401092A601109296011092950181E0809369
S113155011018BEB9AE090935F0180935E011092EE
S11315606601000029960FB6F894DEBF0FBECDBF0A
S1131570DF91CF910895CF93DF93CDB7DEB729974D
S11315800FB6F894DEBF0FBECDBF9091660181E027
S11315908927882309F452C081E08093660181E0A1
S11315A08093470129E0E9EDF0E0CE010196DC01EA
S11315B001900D922A95E1F7CE0101960E949620A2
S11315C082E390E022E330E0F90120812061FC0114
S11315D0208385E390E025E330E0F90120812E7F2C
S11315E0FC01208381E08093940181E08093930146
S11315F082E390E022E330E0F90120812062FC01E3
S1131600208382E390E022E330E0F90120812F7B04
S1131610FC01208381E08093A50181E08093A401F3
S113162084E690E09093A7018093A60184E690E07D
S1131630909396018093950100005DC080914C01C8
S1131640882309F458C010924C0180915001909164
S11316505101893EF3E09F0708F04DC0809150018D
S113166090915101803921E0920708F444C085E348
S113167090E025E330E0F90120812160FC01208322
S113168082E390E022E330E0F90120812F7EFC0127
S113169020838FEF809394018FEF8093930182E3F3
S11316A090E022E330E0F90120812064FC012083F2
S11316B082E390E022E330E0F90120812F7DFC01F8
S11316C020838FEF8093A5018FEF8093A401109264
S11316D0A7011092A601109296011092950181E043
S11316E08093110184E89BE090935F0180935E01F5
S11316F010927701000029960FB6F894DEBF0FBE52
S1131700CDBFDF91CF910895CF93DF93CDB7DEB7EF
S113171029970FB6F894DEBF0FBECDBF9091770125
S113172081E08927882309F455C081E080937701FB
S113173029E0E2EEF0E0CE010196DC0101900D9289
S11317402A95E1F7CE0101960E94962048EE53E0D7
S113175060E070E08AE691E00E94952182E390E0E7
S113176022E330E0F90120812061FC01208385E33C
S113177090E025E330E0F90120812E7FFC012083F5
S113178081E08093940181E08093930182E390E06F
S113179022E330E0F90120812062FC01208382E30E
S11317A090E022E330E0F90120812F7BFC012083CB
S11317B081E08093A50181E08093A4011092A701A8
S11317C01092A60184E690E090939601809395018F
S11317D000004BC08AE691E00E94D521882309F4D9
S11317E044C085E390E025E330E0F90120812160E5
S11317F0FC01208382E390E022E330E0F9012081C0
S11318002F7EFC0120838FEF809394018FEF8093D0
S1131810930182E390E022E330E0F9012081206427
S1131820FC01208382E390E022E330E0F90120818F
S11318302F7DFC0120838FEF8093A5018FEF809390
S1131840A4011092A7011092A60110929601109281
S1131850950181E0809311018EE39CE090935F01F8
S113186080935E0110926401000029960FB6F894EB
S1131870DEBF0FBECDBFDF91CF910895CF93DF932D
S1131880CDB7DEB729970FB6F894DEBF0FBECDBF34
S11318909091640181E08927882309F452C081E092
S11318A08093640181E08093470129E0EBEEF0E04E
S11318B0CE010196DC0101900D922A95E1F7CE014B
S11318C001960E94962082E390E022E330E0F90141
S11318D020812061FC01208385E390E025E330E052
S11318E0F90120812E7FFC01208381E08093940103
S11318F081E08093930182E390E022E330E0F901F8
S113190020812062FC01208382E390E022E330E026
S1131910F90120812F7BFC01208381E08093A501C4
S113192081E08093A40184E690E09093A7018093E2
S1131930A60184E690E090939601809395010000BF
S11319405DC080914C01882309F458C010924C0169
S11319508091500190915101893EF3E09F0708F076
S11319604DC08091500190915101803921E092073E
S113197008F444C085E390E025E330E0F9012081D8
S11319802160FC01208382E390E022E330E0F9014E
S113199020812F7EFC0120838FEF809394018FEFB1
S11319A08093930182E390E022E330E0F901208107
S11319B02064FC01208382E390E022E330E0F9011B
S11319C020812F7DFC0120838FEF8093A5018FEF71
S11319D08093A4011092A7011092A601109296017F
S11319E01092950181E08093110187E09DE090932E
S11319F05F0180935E0110927501000029960FB675
S1131A00F894DEBF0FBECDBFDF91CF910895CF9381
S1131A10DF93CDB7DEB729970FB6F894DEBF0FBEBC
S1131A20CDBF9091750181E08927882309F449C0CD
S1131A3081E08093750129E0E4EFF0E0CE010196A6
S1131A40DC0101900D922A95E1F7CE0101960E94E6
S1131A50962085E390E025E330E0F90120812160C0
S1131A60FC01208382E390E022E330E0F90120814D
S1131A702F7EFC0120838FEF809394018FEF80935E
S1131A80930182E390E022E330E0F90120812064B5
S1131A90FC01208382E390E022E330E0F90120811D
S1131AA02F7DFC0120838FEF8093A5018FEF80931E
S1131AB0A4011092A7011092A6011092960110920F
S1131AC0950129960FB6F894DEBF0FBECDBFDF9106
S1131AD0CF910895CF93DF93CDB7DEB7DF91CF9148
S1131AE00895CF93DF9300D0CDB7DEB79A8389836F
S1131AF089819A81FC0180858823B1F18091BE019E
S1131B0080618093BE0189819A81FC018085882F40
S1131B1090E0880F991F9093980180939701898191
S1131B209A81FC018085882F90E0880F991F9093FB
S1131B30A9018093A80189819A81FC018085882F5D
S1131B4090E0880F991F9093960180939501898165
S1131B509A81FC018085882F90E0880F991F9093CB
S1131B60A7018093A60115C08091BE018F7E80934A
S1131B70BE0110929801109297011092A90110923F
S1131B80A80110929601109295011092A70110924B
S1131B90A6010F900F90DF91CF910895CF93DF931B
S1131BA0CDB7DEB72B970FB6F894DEBF0FBECDBF0F
S1131BB09B878A878A859B85FC018085882F90E096
S1131BC0909367008093660029E0CE010196FC01A2
S1131BD0322F11923A95E9F78BE28983809166005E
S1131BE090916700AA2797FDA095BA2F8E839F83B3
S1131BF0A887B987CE0101960E9496202B960FB62E
S1131C00F894DEBF0FBECDBFDF91CF910895CF937F
S1131C10DF93CDB7DEB72B970FB6F894DEBF0FBEB8
S1131C20CDBF9B878A878A859B85FC018085882F09
S1131C3090E0909313018093120129E0CE01019664
S1131C40FC01322F11923A95E9F78CE28983809155
S1131C50120190911301AA2797FDA095BA2F8E83A4
S1131C609F83A887B987CE0101960E9496202B9660
S1131C700FB6F894DEBF0FBECDBFDF91CF910895AC
S1131C80CF93DF93CDB7DEB72B970FB6F894DEBFB3
S1131C900FBECDBF9B878A878A859B85FC01808583
S1131CA0882F90E0909315018093140129E0CE01D0
S1131CB00196FC01322F11923A95E9F78DE289835E
S1131CC08091140190911501AA2797FDA095BA2F30
S1131CD08E839F83A887B987CE0101960E949620A0
S1131CE02B960FB6F894DEBF0FBECDBFDF91CF9118
S1131CF00895CF93DF93CDB7DEB72B970FB6F89443
S1131D00DEBF0FBECDBF9B878A878A859B85FC017A
S1131D1080858093680029E0CE010196FC01322F72
S1131D2011923A95E9F780E3898380916800882FBE
S1131D3090E0A0E0B0E08E839F83A887B987CE01AE
S1131D4001960E9496202B960FB6F894DEBF0FBE24
S1131D50CDBFDF91CF910895CF93DF93CDB7DEB799
S1131D602B970FB6F894DEBF0FBECDBF9B878A8733
S1131D708A859B85FC0180858093690029E0CE01DA
S1131D800196FC01322F11923A95E9F781E3898398
S1131D9080916900882F90E0A0E0B0E08E839F835B
S1131DA0A887B987CE0101960E9496202B960FB67C
S1131DB0F894DEBF0FBECDBFDF91CF910895CF93CE
S1131DC0DF93CDB7DEB72B970FB6F894DEBF0FBE07
S1131DD0CDBF9B878A878A859B85FC0180858093FC
S1131DE06A0029E0CE010196FC01322F11923A9546
S1131DF0E9F782E3898380916A00882F90E0A0E06C
S1131E00B0E08E839F83A887B987CE0101960E9494
S1131E1096202B960FB6F894DEBF0FBECDBFDF9190
S1131E20CF910895CF93DF93CDB7DEB76D970FB6FB
S1131E30F894DEBF0FBECDBF9D8F8C8F809168005C
S1131E408F5F80936800809169008F5F8093690041
S1131E5080916A008F5F80936A0029E0CE01019629
S1131E60FC01322F11923A95E9F780E3898380913E
S1131E706800882F90E0A0E0B0E08E839F83A8875D
S1131E80B987CE0101960E94962029E0CE010A96D8
S1131E90FC01322F11923A95E9F781E38A87809108
S1131EA06900882F90E0A0E0B0E08F87988BA98B21
S1131EB0BA8BCE0101960E94962029E0CE0143966A
S1131EC0FC01322F11923A95E9F782E38B8B8091D2
S1131ED06A00882F90E0A0E0B0E0888F998FAA8FE5
S1131EE0BB8FCE0101960E9496206D960FB6F89492
S1131EF0DEBF0FBECDBFDF91CF910895CF93DF93A7
S1131F00CDB7DEB76D970FB6F894DEBF0FBECDBF69
S1131F109D8F8C8F8C8D9D8DFC018581882F90E009
S1131F2090936700809366008C8D9D8DFC01868163
S1131F30882F90E090931301809312018C8D9D8DD6
S1131F40FC018781882F90E0909315018093140100
S1131F5029E0CE010196FC01322F11923A95E9F75E
S1131F608BE289838091660090916700AA2797FD90
S1131F70A095BA2F8E839F83A887B987CE01019637
S1131F800E94962029E0CE010A96FC01322F11927C
S1131F903A95E9F78CE28A878091120190911301B6
S1131FA0AA2797FDA095BA2F8F87988BA98BBA8BF8
S1131FB0CE010A960E94962029E0CE014396FC01A8
S1131FC0322F11923A95E9F78DE28B8B80911401AF
S1131FD090911501AA2797FDA095BA2F888F998F04
S1131FE0AA8FBB8FCE0143960E9496206D960FB6A2
S1131FF0F894DEBF0FBECDBFDF91CF910895CF938C
S1132000DF93CDB7DEB78AE390E02AE330E0F9014D
S113201020812E7FFC0120838AE390E02AE330E0D4
S1132020F90120812D7FFC0120838AE390E02AE3DB
S113203030E0F90120812B7FFC0120838AE390E0CA
S11320402AE330E0F9012081277FFC0120838AE321
S113205090E02AE330E0F90120812F7EFC01208307
S11320608AE390E02AE330E0F90120812F7DFC012E
S1132070208387E390E027E330E0F90120812E7F7D
S1132080FC01208381E890E090939801809397016C
S113209081E890E09093A9018093A801DF91CF910A
S11320A00895CF93DF9300D000D0CDB7DEB79C83E3
S11320B08B838B819C81990F880B982F9A838983BA
S11320C02B813C8189819A81280F391F89819A81CA
S11320D0822793270F900F900F900F90DF91CF914D
S11320E00895CF93DF93CDB7DEB785E590E025E57E
S11320F030E0F90120812C60FC01208385E590E02B
S113210025E530E0F90120812360FC0120838BE583
S113211090E02BE530E0F9012081206CFC01208364
S1132120DF91CF910895CF93DF93CDB7DEB783E5E9
S113213090E023E530E0F90120812966FC01208349
S113214085E490E025E430E0F90120812966FC0172
S1132150208387E390E027E330E0F90120812860C1
S1132160FC01208381E390E021E330E0F901208148
S11321702068FC01208384E390E024E330E0F9014B
S113218020812160FC01208381E390E021E330E0A1
S1132190F90120812061FC01208381E390E021E3A7
S11321A030E0F90120812062FC01208381E390E08A
S11321B021E330E0F90120812064FC012083DF91D8
S11321C0CF910895CF93DF9300D000D01F92CDB765
S11321D0DEB79A8389837C836B834D838D819927B2
S11321E087FD90958130910509F472C08230910584
S11321F034F48F3F2FEF920709F49BC0CBC0823099
S1132200910521F08330910591F1C4C085E390E0FC
S113221025E330E0F90120812160FC01208382E381
S113222090E022E330E0F90120812F7EFC0120833D
S11322308FEF809394018FEF8093930182E390E07A
S113224022E330E0F90120812062FC01208382E353
S113225090E022E330E0F90120812F7BFC01208310
S113226081E08093A50181E08093A401C4C082E34E
S113227090E022E330E0F90120812061FC01208319
S113228085E390E025E330E0F90120812E7FFC0115
S1132290208381E08093940181E08093930182E321
S11322A090E022E330E0F90120812064FC012083E6
S11322B082E390E022E330E0F90120812F7DFC01EC
S11322C020838FEF8093A5018FEF8093A40193C0A7
S11322D082E390E022E330E0F90120812061FC01F7
S11322E0208385E390E025E330E0F90120812E7F0F
S11322F0FC01208381E08093940181E08093930129
S113230082E390E022E330E0F90120812062FC01C5
S1132310208382E390E022E330E0F90120812F7BE7
S1132320FC01208381E08093A50181E08093A401D6
S113233062C085E390E025E330E0F901208121606B
S1132340FC01208382E390E022E330E0F901208164
S11323502F7EFC0120838FEF809394018FEF809375
S1132360930182E390E022E330E0F90120812064CC
S1132370FC01208382E390E022E330E0F901208134
S11323802F7DFC0120838FEF8093A5018FEF809335
S1132390A40131C082E390E022E330E0F90120811E
S11323A02061FC01208385E390E025E330E0F9011E
S11323B020812E7FFC01208381E08093940181E0C1
S11323C08093930182E390E022E330E0F9012081DD
S11323D02062FC01208382E390E022E330E0F901F3
S11323E020812F7BFC01208381E08093A50181E083
S11323F08093A401000089819A819093960180932F
S1132400950189819A819093A7018093A6018B817C
S11324109C8190938C0180938B018B819C81909300
S11324209D0180939C0110929B0110929A0110923D
S11324308A01109289010F900F900F900F900F90C6
S1132440DF91CF910895CF93DF9300D0CDB7DEB75E
S11324509A83898389819A81FC018781882F90E0FE
S11324608130910591F0823091051CF4009741F080
S113247021C08230910581F083309105A1F01AC00A
S113248010921701109216011AC084EB90E09093F9
S113249017018093160113C080EE91E09093170109
S11324A0809316010CC088EC90E090931701809300
S11324B0160105C0109217011092160100008981BF
S11324C09A81FC018681482F2091160130911701D1
S11324D089819A81FC018085882F90E0B9010E944E
S11324E0E2100F900F90DF91CF910895CF93DF9377
S11324F0CDB7DEB76C970FB6F894DEBF0FBECDBF75
S11325009C8F8B8F8B8D9C8DFC0185819681A781FF
S1132510B0858D839E83AF83B8878F8198859A8396
S113252089838D819E819C838B8389819A81992360
S1132530ECF182E390E022E330E0F90120812061B4
S1132540FC01208385E390E025E330E0F90120815C
S11325502E7FFC01208381E08093940181E08093AD
S1132560930182E390E022E330E0F90120812062CC
S1132570FC01208382E390E022E330E0F901208132
S11325802F7BFC01208381E08093A50181E080936F
S1132590A40189819A8190939601809395018B81FE
S11325A09C819093A7018093A60140C085E390E0AD
S11325B025E330E0F90120812160FC01208382E3DE
S11325C090E022E330E0F90120812F7EFC0120839A
S11325D08FEF809394018FEF8093930182E390E0D7
S11325E022E330E0F90120812064FC01208382E3AE
S11325F090E022E330E0F90120812F7DFC0120836B
S11326008FEF8093A5018FEF8093A40189819A8134
S11326100E94511090939601809395018B819C8127
S11326200E9451109093A7018093A60129E0CE0146
S11326300996FC01322F11923A95E9F786E18987D0
S11326408091950190919601AA2797FDA095BA2FA4
S11326508E879F87A88BB98BCE0109960E949620FE
S113266029E0CE014296FC01322F11923A95E9F706
S113267085E18A8B8091A6019091A701AA2797FDF5
S1132680A095BA2F8F8B988FA98FBA8FCE014296BF
S11326900E9496206C960FB6F894DEBF0FBECDBF95
S11326A0DF91CF910895CF93DF9300D0CDB7DEB7FC
S11326B09A83898389819A81FC018085282F30E05F
S11326C044E6429FC001439F900D112490936C00F7
S11326D080936B000F900F90DF91CF910895CF936B
S11326E0DF9300D0CDB7DEB79A83898389819A813D
S11326F0FC018085882F90E09093700080936F0098
S113270089819A81FC018781882F90E090936E00E3
S113271080936D000F900F90DF91CF910895CF9328
S1132720DF93CDB7DEB780911801882F90E0AA27F8
S113273097FDA095BA2F40E050E028E030E0841BDC
S1132740950B2817390708F46AC1865D9F4FFC0171
S11327500C94612380917100882351F010927100D0
S11327604AEF50E060E070E089E191E00E94952139
S113277089E191E00E94D521882339F081E080939A
S1132780180181E08093710052C151C180917100A0
S1132790882349F01092710041E06AE374E084EB0D
S11327A090E00E94E21080918B0190918C0100973F
S11327B061F480919C0190919D01009731F481E036
S11327C08093710082E080931801809171008823C6
S11327D051F0109271004AEF50E060E070E089E13E
S11327E091E00E94952189E191E00E94D5218823FE
S11327F039F083E08093180181E08093710017C160
S113280016C180917100882349F01092710042E052
S113281060EE71E084EB90E00E94E21080918B0105
S113282090918C01009769F480919C0190919D0195
S1132830009739F481E08093710084E0809318015B
S1132840F6C0F5C080917100882351F01092710098
S11328504AEF50E060E070E089E191E00E94952148
S113286089E191E00E94D521882339F085E08093A5
S1132870180181E080937100DAC0D9C080917100A1
S1132880882309F45DC082E390E022E330E0F9019B
S113289020812061FC01208385E390E025E330E082
S11328A0F90120812E7FFC01208381E08093940133
S11328B081E08093930182E390E022E330E0F90128
S11328C020812062FC01208382E390E022E330E057
S11328D0F90120812F7BFC01208381E08093A501F5
S11328E081E08093A40180916D0090916E008295A7
S11328F09295907F9827807F9827019690939601D0
S11329008093950180916F009091700082959295CB
S1132910907F9827807F982701969093A7018093B2
S1132920A6011092710080916B0090916C00CC0113
S1132930A0E0B0E0AC01BD0189E191E00E949521E5
S113294089E191E00E94D521882379F010929601C3
S1132950109295011092A7011092A60186E080932F
S1132960180181E08093710062C061C080917100A0
S1132970882351F0109271004AEF50E060E070E05B
S113298089E191E00E94952189E191E00E94D5219D
S1132990882339F087E08093180181E080937100E7
S11329A046C045C080917100882349F0109271009F
S11329B043E060EE71E084EB90E00E94E2108091CD
S11329C08B0190918C01009769F480919C01909106
S11329D09D01009739F481E08093710088E0809331
S11329E0180125C024C080917100882351F01092F1
S11329F071004AEF50E060E070E089E191E00E94EC
S1132A00952189E191E00E94D521882339F089E05C
S1132A108093180181E08093710009C008C08091FF
S1132A20BE01877F8093BE01109218010000DF91E0
S1132A30CF910895CF93DF93CDB7DEB78091220174
S1132A40882F90E0AA2797FDA095BA2F40E050E088
S1132A5021E130E0841B950B2817390708F428C2BC
S1132A608D5C9F4FFC010C9461238091720088233C
S1132A7051F01092720048EB5BE060E070E083E29A
S1132A8091E00E94952183E291E00E94D521882360
S1132A9039F081E08093220181E08093720010C2BA
S1132AA00FC280917200882349F01092720041E0B5
S1132AB064E778E08CE291E00E94E21080918B015F
S1132AC090918C01009761F480919C0190919D01FB
S1132AD0009731F481E08093720082E080932201B8
S1132AE080917200882351F0109272004AEF50E0F6
S1132AF060E070E083E291E00E94952183E291E03E
S1132B000E94D521882339F083E08093220181E05B
S1132B1080937200D5C1D4C180917200882349F09A
S1132B201092720043E060EE71E084EB90E00E944A
S1132B30E21080918B0190918C01009769F480914F
S1132B409C0190919D01009739F481E0809372007B
S1132B5084E080932201B4C1B3C1809172008823C0
S1132B6051F0109272004AEF50E060E070E083E2AE
S1132B7091E00E94952183E291E00E94D52188236F
S1132B8039F085E08093220181E08093720098C13E
S1132B9097C180917200882349F01092720041E03D
S1132BA062E176E08CE291E00E94E21080918B0178
S1132BB090918C01009769F480919C0190919D0102
S1132BC0009739F481E08093720086E080932201BB
S1132BD077C176C180917200882351F010927200FF
S1132BE04AEF50E060E070E083E291E00E949521BA
S1132BF083E291E00E94D521882339F087E0809315
S1132C00220181E0809372005BC15AC180917200FD
S1132C10882349F01092720042E060EE71E084EB88
S1132C2090E00E94E21080918B0190918C010097BA
S1132C3069F480919C0190919D01009739F481E0A1
S1132C408093720088E0809322013AC139C1809157
S1132C507200882351F0109272004AEF50E060E055
S1132C6070E083E291E00E94952183E291E00E946A
S1132C70D521882339F089E08093220181E0809373
S1132C8072001EC11DC180917200882349F0109208
S1132C90720041E060EA79E08CE291E00E94E21087
S1132CA080918B0190918C01009769F480919C0133
S1132CB090919D01009739F481E0809372008AE03D
S1132CC080932201FDC0FCC080917200882351F0E2
S1132CD0109272004AEF50E060E070E083E291E00D
S1132CE00E94952183E291E00E94D521882339F046
S1132CF08BE08093220181E080937200E1C0E0C008
S1132D0080917200882349F01092720042E060EED4
S1132D1071E084EB90E00E94E21080918B0190912D
S1132D208C01009769F480919C0190919D0100971A
S1132D3039F481E0809372008CE080932201C0C05A
S1132D40BFC080917200882351F0109272004AEF44
S1132D5050E060E070E083E291E00E94952183E21C
S1132D6091E00E94D521882339F08DE080932201DF
S1132D7081E080937200A4C0A3C080917200882374
S1132D8049F01092720041E063E176E08CE291E058
S1132D900E94E21080918B0190918C01009769F45C
S1132DA080919C0190919D01009739F481E080937A
S1132DB072008EE08093220183C082C080917200F1
S1132DC0882351F0109272004AEF50E060E070E006
S1132DD083E291E00E94952183E291E00E94D52153
S1132DE0882339F08FE08093220181E08093720080
S1132DF067C066C080917200882349F01092720007
S1132E0043E060EE71E084EB90E00E94E210809178
S1132E108B0190918C01009769F480919C019091B1
S1132E209D01009739F481E08093720080E18093E2
S1132E30220146C045C080917200882351F010924F
S1132E4072004AEF50E060E070E083E291E00E949B
S1132E50952183E291E00E94D521882339F081E114
S1132E608093220181E0809372002AC029C080915E
S1132E707200882349F01092720041E060ED77E01F
S1132E808CE291E00E94E21080918B0190918C0180
S1132E90009769F480919C0190919D01009739F409
S1132EA081E08093720082E18093220109C008C00E
S1132EB08091BE018F7D8093BE011092220100009B
S1132EC0DF91CF910895CF93DF9300D0CDB7DEB7D4
S1132ED09A8389830E948F138091BE0188608093B6
S1132EE0BE010F900F90DF91CF910895CF93DF93A0
S1132EF000D0CDB7DEB79A8389830E941A158091DA
S1132F00BE0180628093BE010F900F90DF91CF913C
S1132F100895CF93DF93CDB7DEB70E9471100E945E
S1132F20931082E390E022E330E0F90120812061F4
S1132F30FC01208385E390E025E330E0F901208162
S1132F402E7FFC01208381E08093940181E08093B3
S1132F50930182E390E022E330E0F90120812062D2
S1132F60FC01208382E390E022E330E0F901208138
S1132F702F7BFC01208381E08093A50181E0809375
S1132F80A40110929801109297011092A901109235
S1132F90A80181E090E0909396018093950181E0EF
S1132FA090E09093A7018093A60181E08093920121
S1132FB081E08093A301DF91CF910895CF93DF93B4
S1132FC000D0CDB7DEB79A83898389819A81FC01C9
S1132FD085819681A781B085809373000F900F90AF
S1132FE0DF91CF910895CF93DF93CDB7DEB72F97BD
S1132FF00FB6F894DEBF0FBECDBF84E689838AE0A6
S11330008A838AE08B8382E08A878DE08B8782E3E0
S11330108C838FEF8C871D821E821F8218861986EF
S11330201D861E861F8687E390E027E330E0F901C2
S113303020812460FC01208388E390E028E330E0D1
S1133040F90120812460FC01208388E390E028E3D7
S113305030E0F90120812B7FFC0120831092BE0116
S11330600E9478000E947F220E9471210E94FC1F0E
S11330700E9489170E94FF0F109247011092480185
S1133080109249018CE492E090935F0180935E0179
S113309078948091BA019091BB01A091BC01B09148
S11330A0BD0181309105A105B10509F04AC088E34D
S11330B090E028E330E0F901308124E02327FC018B
S11330C020831092BA011092BB011092BC0110929D
S11330D0BD018981815089838981882331F484E603
S11330E0898381E08D8381E08E838A8181508A8304
S11330F08A81882331F48AE08A8381E08D8381E0A8
S11331008F838B8181508B838B81882351F48091B1
S11331104701882331F08AE08B8381E08D8381E04D
S1133120888780914801882361F08C8181508C8349
S11331308C81882331F482E38C8381E08D8381E068
S113314089878D81882301F11D828E81882319F05E
S11331501E820E94C5188F81882319F01F820E9445
S1133160E4018885882319F018860E94FA0089856D
S1133170882319F019860E940F0180915E019091B5
S11331805F01FC01099585CF84CFCF93DF93CDB741
S1133190DEB78091B2019091B301A091B401B091D6
S11331A0B5010196A11DB11D8093B2019093B301A5
S11331B0A093B401B093B5018C339105A105B10579
S11331C009F048C01092B2011092B3011092B401F8
S11331D01092B5018091AE019091AF01A091B00120
S11331E0B091B1010196A11DB11D8093AE019093E0
S11331F0AF01A093B001B093B1018C339105A10547
S1133200B10541F51092AE011092AF011092B001D8
S11332101092B1018091AA019091AB01A091AC01EF
S1133220B091AD010196A11DB11D8093AA019093A7
S1133230AB01A093AC01B093AD0188319105A10518
S1133240B10541F41092AA011092AB011092AC01A5
S11332501092AD01DF91CF910895CF93DF9300D009
S113326000D0CDB7DEB72091AA013091AB014091D7
S1133270AC015091AD0180E197E2DC010E9476231C
S1133280DC01CB0189839A83AB83BC832091AE019B
S11332903091AF014091B0015091B10184E690E0CA
S11332A0DC010E947623DC01CB0129813A814B8128
S11332B05C81820F931FA41FB51F89839A83AB83FC
S11332C0BC838091B2019091B301A091B401B091FB
S11332D0B50129813A814B815C81820F931FA41F20
S11332E0B51F89839A83AB83BC8389819A81AB811F
S11332F0BC81BC01CD010F900F900F900F90DF9116
S1133300CF910895CF93DF93CDB7DEB72B970FB648
S1133310F894DEBF0FBECDBF9B878A878A859B85C5
S1133320FC0180858093740029E0CE010196FC01A4
S1133330322F11923A95E9F789E2898380917400DA
S1133340882F90E0A0E0B0E08E839F83A887B987A0
S1133350CE0101960E9496202B960FB6F894DEBFFC
S11333600FBECDBFDF91CF910895CF93DF93CDB73B
S1133370DEB72B970FB6F894DEBF0FBECDBF9B8789
S11333808A878A859B85FC0180858093750029E066
S1133390CE010196FC01322F11923A95E9F789E2A8
S11333A0898380917500882F90E0A0E0B0E08E833F
S11333B09F83A887B987CE0101960E9496202B96F9
S11333C00FB6F894DEBF0FBECDBFDF91CF91089545
S11333D01F920F9200905F000F9211242F933F933E
S11333E08F939F93EF93FF93CF93DF93CDB7DEB784
S11333F080912E01882F90E02CE230E0F9012081A9
S113340086539C4FFC01208380912E018F5F809313
S11334102E0180912E01893038F010922E01809176
S1133420BE0184608093BE01DF91CF91FF91EF9143
S11334309F918F913F912F910F9000925F000F9079
S11334401F9018951F920F9200905F000F92112405
S11334502F933F938F939F93EF93FF93CF93DF9398
S1133460CDB7DEB78091D3038823A9F580912F01CE
S113347091E0980F90932F01853008F451C08CE2AD
S113348090E02091300130913101F9012081FC015B
S11334902083809130019091310101969093310104
S11334A0809330018091300190913101FC01808141
S11334B08823B1F510922F018AE290E02AE230E0ED
S11334C0F90120812F7DFC0120838091BE018D7F35
S11334D08093BE0125C08CE290E020912F01222F21
S11334E030E02D523C4FF9012081FC012083809172
S11334F02F018F5F80932F0180912F01893080F0FD
S113350010922F018AE290E02AE230E0F901208152
S11335102F7DFC0120838091BE018D7F8093BE01AD
S1133520DF91CF91FF91EF919F918F913F912F91D7
S11335300F9000925F000F901F9018951F920F92AA
S113354000905F000F9211242F933F934F935F934A
S11335506F937F938F939F93AF93BF93EF93FF9357
S1133560CF93DF93CDB7DEB7809132018F5F809325
S1133570320180913201883008F4E8C2109232019D
S113358080918801282F332727FD30958091B6013B
S11335909091B701A901481B590BCA01909390015E
S11335A080938F0180919901282F332727FD30952F
S11335B08091B8019091B901F901E81BF90BCF0191
S11335C09093A1018093A0012091890130918A01F7
S11335D08091B6019091B701820F931F90938A0155
S11335E08093890120919A0130919B018091B801C7
S11335F09091B901820F931F90939B0180939A013C
S11336001092B9011092B8011092B7011092B6014C
S113361080918801882309F4BDC081E080938E01E4
S1133620809193018130B1F482E390E022E330E0B1
S1133630F90120812061FC01208385E390E025E3EA
S113364030E0F90120812E7FFC01208381E080930A
S1133650940115C085E390E025E330E0F901208171
S11336602160FC01208382E390E022E330E0F90151
S113367020812F7EFC0120838FEF80939401409161
S11336808F015091900180917400882F90E0489FA1
S11336909001499F300D589F300D112440918F01A6
S11336A0509190018091330190913401BA01681BCB
S11336B0790B80917500482F50E0649FC001659F8D
S11336C0900D749F900D112499230CF4CF96082E1D
S11336D0892F000C881F990B000C881F991F280F35
S11336E0391F8091350190913601820F931F909379
S11336F036018093350180913501909136018F3FD9
S1133700910541F03CF08FEF90E090933601809367
S113371035010BC0809135019091360118161906B8
S113372024F0109236011092350180913501909168
S113373036018F3F910539F034F08CE590E02FEF9E
S1133740FC01208308C08CE590E020913501309184
S11337503601FC01208380918F019091900199237F
S11337600CF09DC085E390E025E330E0F901208171
S11337702160FC01208382E390E022E330E0F90140
S113378020812061FC0120838CE590E02FEFFC0177
S1133790208385C080918E018823B9F080918F01A8
S11337A090919001009789F010928E0110929101EE
S11337B080918D01882331F010928D0182E08093F5
S11337C0920103C084E18093920180919101882346
S11337D009F03FC0809193018130B1F485E390E01A
S11337E025E330E0F90120812160FC01208382E39C
S11337F090E022E330E0F90120812F7EFC01208358
S11338008FEF8093940115C082E390E022E330E0CF
S1133810F90120812061FC01208385E390E025E308
S113382030E0F90120812E7FFC01208381E0809328
S113383094018CE590E02FEFFC01208380919201AC
S1133840815080939201882351F581E08093910106
S113385026C085E390E025E330E0F9012081216072
S1133860FC01208382E390E022E330E0F90120812F
S11338702061FC0120838CE590E0FC0110828091A2
S11338808F0190919001009731F08CE590E02FEF3B
S1133890FC01208304C08CE590E0FC01108280913F
S11338A09901882309F4BDC081E080939F01809130
S11338B0A4018130B1F482E390E022E330E0F90125
S11338C020812062FC01208382E390E022E330E047
S11338D0F90120812F7BFC01208381E08093A501E5
S11338E015C082E390E022E330E0F90120812064F6
S11338F0FC01208382E390E022E330E0F90120819F
S11339002F7DFC0120838FEF8093A5014091A001BE
S11339105091A10180917400882F90E0489F9001FC
S1133920499F300D589F300D11244091A0015091B2
S1133930A1018091370190913801BA01681B790B7C
S113394080917500482F50E0649FC001659F900DE1
S1133950749F900D112499230CF4CF96082E892F6F
S1133960000C881F990B000C881F991F280F391F02
S11339708091390190913A01820F931F90933A01FB
S1133980809339018091390190913A018F3F9105DB
S113399041F03CF08FEF90E090933A01809339012D
S11339A00BC08091390190913A011816190624F040
S11339B010923A01109239018091390190913A01A3
S11339C08F3F910539F034F083E490E02FEFFC0150
S11339D0208308C083E490E02091390130913A01BA
S11339E0FC0120838091A0019091A10199230CF006
S11339F09DC082E390E022E330E0F901208120625F
S1133A00FC01208382E390E022E330E0F90120818D
S1133A102064FC01208383E490E02FEFFC012083E9
S1133A2085C080919F018823B9F08091A001909175
S1133A30A101009789F010929F011092A201809138
S1133A409E01882331F010929E0182E08093A301AD
S1133A5003C084E18093A3018091A201882309F02B
S1133A603FC08091A4018130B1F482E390E022E36D
S1133A7030E0F90120812064FC01208382E390E09E
S1133A8022E330E0F90120812F7DFC0120838FEFB8
S1133A908093A50115C082E390E022E330E0F901B0
S1133AA020812062FC01208382E390E022E330E065
S1133AB0F90120812F7BFC01208381E08093A50103
S1133AC083E490E02FEFFC0120838091A3018150D7
S1133AD08093A301882351F581E08093A20126C03D
S1133AE082E390E022E330E0F90120812062FC01CE
S1133AF0208382E390E022E330E0F9012081206416
S1133B00FC01208383E490E0FC0110828091A001F9
S1133B109091A101009731F083E490E02FEFFC0134
S1133B20208304C083E490E0FC01108280918F0123
S1133B309091900190933401809333018091A0017E
S1133B409091A101909338018093370180913B01BA
S1133B508F5F80933B0180913B018A3070F010921B
S1133B603B0181E090E0A0E0B0E08093BA01909343
S1133B70BB01A093BC01B093BD018091C603909199
S1133B80C703A091C803B091C9030196A11DB11D3B
S1133B908093C6039093C703A093C803B093C9034B
S1133BA0DF91CF91FF91EF91BF91AF919F918F9151
S1133BB07F916F915F914F913F912F910F90009260
S1133BC05F000F901F9018951F920F9200905F0056
S1133BD00F9211242F933F938F939F93EF93FF930F
S1133BE0CF93DF93CDB7DEB785E590E025E530E0F0
S1133BF0F901308121E02327FC0120838091B80161
S1133C009091B90101969093B9018093B801DF9125
S1133C10CF91FF91EF919F918F913F912F910F90B1
S1133C2000925F000F901F9018951F920F920090C2
S1133C305F000F9211242F933F938F939F93EF93E1
S1133C40FF93CF93DF93CDB7DEB785E590E025E50D
S1133C5030E0F901308124E02327FC0120838091A6
S1133C60B6019091B70101969093B7018093B60184
S1133C70DF91CF91FF91EF919F918F913F912F9180
S1133C800F9000925F000F901F9018951F920F9253
S1133C9000905F000F9211242F933F934F936F93E3
S1133CA07F938F939F93AF93BF93EF93FF93CF93A0
S1133CB0DF93CDB7DEB784E290E0FC01808180938E
S1133CC02C0185E290E0FC01808180932D0180919C
S1133CD04D018823B9F120912C0130912D014AEF37
S1133CE0429FC001439F900D112496958795969508
S1133CF087959C01ABE7B4E10E946723969587956D
S1133D00909351018093500187E290E027E230E0E4
S1133D10F9012081287FFC01208387E290E027E2DB
S1133D2030E0F90120812760FC01208386E290E0E5
S1133D3026E230E0F90120812064FC012083109206
S1133D404D0121C020912C0130912D014AEF429F59
S1133D50C001439F900D112496958795969587955C
S1133D609C01ABE7B4E10E946723969587959093F5
S1133D704F0180934E0110924B0181E080934C01DE
S1133D8081E080935B01DF91CF91FF91EF91BF912F
S1133D90AF919F918F917F916F914F913F912F910F
S1133DA00F9000925F000F901F901895CF93DF93B0
S1133DB0CDB7DEB764970FB6F894DEBF0FBECDBFA4
S1133DC09C8B8B8B81E08093470110924A0181E0A8
S1133DD0809348018AE69DE090935F0180935E01A1
S1133DE010929601109295011092A7011092A601CB
S1133DF081E589831A821B821C821D821E821F8296
S1133E0018861986CE0101960E94962089E0EDEF6E
S1133E10F0E0DE011A9601900D928A95E1F7CE0149
S1133E200A960E94962064960FB6F894DEBF0FBEE1
S1133E30CDBFDF91CF910895CF93DF9300D01F9230
S1133E40CDB7DEB79B838A83109247011092480155
S1133E508A819B81FC01858189838981882F90E0F7
S1133E60AA2797FDA095BA2F40E050E023E130E067
S1133E70841B950B2817390708F4B1C08B5B9F4F3F
S1133E80FC010C9461238CE492E090935F01809395
S1133E905E01ACC083E592E090935F0180935E0184
S1133EA010928101A3C082E093E090935F0180931C
S1133EB05E01109285019AC083E893E090935F01BC
S1133EC080935E011092830191C08AEE93E09093F7
S1133ED05F0180935E018AC083E494E090935F0164
S1133EE080935E0183C08AE494E090935F018093A1
S1133EF05E017CC01092730181E594E090935F01B0
S1133F0080935E0173C01092790180ED94E09093E8
S1133F105F0180935E016AC010925C0189E995E0BB
S1133F2090935F0180935E0161C01092620183E50A
S1133F3096E090935F0180935E0158C010927F01D8
S1133F4083E197E090935F0180935E014FC01092EC
S1133F507D018FEC97E090935F0180935E0146C0F2
S1133F6010927B0189E898E090935F0180935E0151
S1133F703DC01092680185E499E090935F018093BD
S1133F805E0134C01092600181E09AE090935F0179
S1133F9080935E012BC0109266018BEB9AE09093A4
S1133FA05F0180935E0122C01092770184E89BE058
S1133FB090935F0180935E0119C0109264018EE3B7
S1133FC09CE090935F0180935E0110C01092750194
S1133FD087E09DE090935F0180935E0107C08AE6CD
S1133FE09DE090935F0180935E0100000F900F901D
S1133FF00F90DF91CF910895CF93DF93CDB7DEB7C4
S11340008AE491E09093C5018093C4018AE891E029
S11340109093CB018093CA0186E792E19093F901D2
S11340208093F80183E292E19093FB018093FA017B
S113403083E697E19093FD018093FC0186E797E185
S1134040909303028093020283E593E19093FF012E
S11340508093FE018FE693E1909301028093000226
S113406082E899E1909315028093140285EB99E11B
S113407090931702809316028EEC9DE090931902A0
S11340808093180280E49EE090931D0280931C02AA
S113409087E09EE090931B0280931A0289E79EE0DA
S11340A090932302809322028CEA9EE0909325024F
S11340B0809324028FED9EE0909327028093260242
S11340C082E19FE090932902809328028EE79FE08B
S11340D090931F0280931E028EED97E1909321022C
S11340E08093200286ED9EE19093630280936202A6
S11340F08CE19FE1909367028093660281E79DE0E3
S11341009093410280934002DF91CF910895CF9321
S1134110DF93CDB7DEB780913C01882F90E0A0E01B
S1134120B0E0BC01CD01DF91CF910895CF93DF932F
S113413000D000D0CDB7DEB79C838B838B819C816C
S1134140009709F459C080913C01833338F0000092
S11341500E9403210097E1F710923C018BE090E06C
S11341600E9481239A83898389819A812B813C814E
S113417049E0F901DC0101900D924A95E1F789814A
S11341809A81FC01128611868091C4039091C50323
S1134190009731F08091C2039091C3030097C1F45A
S11341A089819A819093C3038093C20389819A8100
S11341B09093C5038093C4038091C4039091C50375
S11341C02091C2033091C303FC01328721870FC0C1
S11341D08091C2039091C30329813A81FC01328703
S11341E0218789819A819093C3038093C20380912C
S11341F03C018F5F80933C010F900F900F900F90C4
S1134200DF91CF910895CF93DF93CDB7DEB71092AE
S11342103D01109242011092430110924401109208
S113422045018091C4039091C5039093C103809389
S1134230C0038091C0039091C103009751F0809115
S1134240C2039091C303009721F080913C0188231D
S113425019F480E090E042C08091C0039091C103C2
S1134260FC01818592850097C1F08091C4039091EF
S1134270C503FC01818592859093C5038093C40393
S11342808091C0039091C10329E0FC01ADE3B1E04A
S113429001900D922A95E1F714C08091C00390918A
S11342A0C10329E0FC01ADE3B1E001900D922A9530
S11342B0E1F71092C5031092C4031092C303109245
S11342C0C20380913C01815080933C018091C003E2
S11342D09091C1030E9419248DE391E0DF91CF9165
S11342E00895CF93DF93CDB7DEB78FE490E0FC0160
S11342F010828EE490E02EE430E0F90120812A60FF
S1134300FC0120838AE490E022EE34E0FC01318356
S1134310208389E590E029E530E0F90120812061DE
S1134320FC012083DF91CF910895CF93DF9300D0D8
S113433000D000D0CDB7DEB79A8389834B835C83EA
S11343406D837E838091C6039091C703A091C803B7
S1134350B091C90329813A81F90180839183A283B1
S1134360B3832091C6033091C7034091C803509191
S1134370C9038B819C81AD81BE81820F931FA41FD1
S1134380B51F29813A81F90184839583A683B78374
S113439089819A81FC01108626960FB6F894DEBFB7
S11343A00FBECDBFDF91CF910895CF93DF93CDB7EB
S11343B0DEB72A970FB6F894DEBF0FBECDBF9A873B
S11343C0898789859A85FC0180819181A281B38145
S11343D089839A83AB83BC8389859A85FC01848114
S11343E09581A681B7818D839E83AF83B8878985A4
S11343F09A85FC018085882309F077C02D813E8150
S11344004F81588589819A81AB81BC81821793073A
S1134410A407B50758F52091C6033091C70340910E
S1134420C8035091C9038D819E81AF81B885281737
S113443039074A075B0788F42091C6033091C70304
S11344404091C8035091C90389819A81AB81BC8191
S1134450281739074A075B0738F489859A8521E0CC
S1134460FC01208781E042C080E040C02D813E8174
S11344704F81588589819A81AB81BC81281739077E
S11344804A075B0758F52091C6033091C703409152
S1134490C8035091C90389819A81AB81BC812817D3
S11344A039074A075B07C0F42091C6033091C7035C
S11344B04091C8035091C9038D819E81AF81B88515
S11344C0281739074A075B0738F089859A8521E060
S11344D0FC01208781E00AC080E008C089859A85B4
S11344E021E0FC01208781E001C080E02A960FB61C
S11344F0F894DEBF0FBECDBFDF91CF910895CF9367
S1134500DF93CDB7DEB780E490E020E430E0F9013A
S113451020812F77FC01208389E290E021E8FC01CF
S113452020838BE290E022E0FC0120838AE290E089
S11345302AE230E0F90120812869FC01208380E42B
S113454090E020E430E0F90120812668FC0120831A
S113455082E390E022E330E0F90120812160FC0154
S11345602083DF91CF910895CF93DF9300D0CDB70F
S1134570DEB79A8389838091BE0182608093BE01F5
S11345800E942D19DC01CB0129813A81F901818333
S11345909283A383B48389819A81FC01808180936F
S11345A0D30389819A81FC0181818093D403898119
S11345B09A81FC0182818093D50389819A81FC01CF
S11345C083818093D60389819A81FC0184818093BD
S11345D0D70389819A81FC0185818093D8038981DD
S11345E09A81FC0186818093D90389819A81FC0197
S11345F087818093DA0389819A81FC018085809385
S1134600DB038AE290E02AE230E0F90120812062B3
S1134610FC0120830F900F90DF91CF910895CF93E9
S1134620DF93CDB7DEB72B970FB6F894DEBF0FBE7E
S1134630CDBF9B878A8729E0CE010196FC01322FEA
S113464011923A95E9F78A859B859F838E838091A1
S1134650BE0182608093BE010E942D19DC01CB0152
S11346608A839B83AC83BD8389818093D3038A81AE
S11346708093D4038B818093D5038C818093D6035C
S11346808D818093D7038E818093D8038F8180930B
S1134690D90388858093DA0389858093DB038AE2D2
S11346A090E02AE230E0F90120812062FC012083BD
S11346B02B960FB6F894DEBF0FBECDBFDF91CF911E
S11346C00895EE0FFF1F0590F491E02D0994A29F29
S11346D0B001B39FC001A39F700D811D1124911DD2
S11346E0B29F700D811D1124911D08950E946723AE
S11346F0A59F900DB49F900DA49F800D911D112432
S11347000895CF93DF938230910510F482E090E016
S1134710E091DE03F091DF0320E030E0A0E0B0E0C0
S1134720309739F14081518148175907B8F048173B
S1134730590771F482819381109729F013969C9301
S11347408E9312972CC09093DF038093DE0327C0CF
S11347502115310531F04217530718F0A901DB0187
S113476001C0EF019A01BD01DF010280F381E02D58
S1134770D7CF21153105F9F0281B390B2430310529
S113478080F48A819B816115710521F0FB0193837B
S1134790828304C09093DF038093DE03FE0132968C
S11347A044C0FE01E20FF31F81939193225031091B
S11347B0398328833AC02091DC033091DD03232B15
S11347C041F420916200309163003093DD03209323
S11347D0DC0320916000309161002115310541F422
S11347E02DB73EB74091640050916500241B350BF2
S11347F0E091DC03F091DD03E217F307A0F42E1B34
S11348003F0B2817390778F0AC014E5F5F4F241730
S1134810350748F04E0F5F1F5093DD034093DC03D0
S11348208193919302C0E0E0F0E0CF01DF91CF915A
S11348300895CF93DF93009709F487C0FC01329762
S113484013821282C091DE03D091DF03209781F49A
S113485020813181280F391F8091DC039091DD0381
S11348608217930779F5F093DD03E093DC036DC0C1
S1134870DE0120E030E0AE17BF0750F412964D91F0
S11348805C9113979D014115510509F1DA01F3CFAC
S1134890B383A28340815181840F951F8A179B079C
S11348A071F48D919C911197840F951F02969183B9
S11348B0808312968D919C91139793838283211503
S11348C0310529F4F093DF03E093DE033EC0D90100
S11348D01396FC93EE9312974D915D91A40FB51F1F
S11348E0EA17FB0779F480819181840F951F029662
S11348F0D90111969C938E938281938113969C93F4
S11349008E931297E0E0F0E08A819B81009719F082
S1134910FE01EC01F9CFCE01029628813981820F84
S1134920931F2091DC033091DD032817390769F4C4
S1134930309729F41092DF031092DE0302C0138231
S11349401282D093DD03C093DC03DF91CF910895ED
S1074950F894FFCF05
S11349540000E0032000180006090B301107000FC3
S11349640001010F0441540000000002000000543F
S113497400000000030000005400000000070000D1
S11349840054000000000800000054000000000966
S113499400000054000000000A000000540000005D
S11349A4000B00000054000000000C000000540040
S11349B40000000D00000054000000000E00000080
S11349C454000000000F0000005400000000100018
S11349D40000540000000011000000540000000016
S11349E412000000540000000013000000540000F2
S10949F4000014000000A5
S9030000FC
